:100000000C9446000C9465000C9465000C946500FB
:100010000C9465000C9465000C9465000C946500CC
:100020000C9465000C9465000C9465000C946500BC
:100030000C9465000C9492000C9465000C9465007F
:100040000C9465000C9465000C9465000C9465009C
:100050000C9465000C9465000C9465000C9465008C
:100060000C9465000C9465000C9465000C9465007C
:100070000C9465000C9465000C9465000C9465006C
:100080000C9465000C9465000C94650011241FBE4F
:10009000CFEFD0E4DEBFCDBF11E0A0E0B1E0E8EBF0
:1000A000F3E000E00BBF02C007900D92AC30B10747
:1000B000D9F711E0ACE0B1E001C01D92AA31B1075F
:1000C000E1F70E9468010C94DA010C9400008BE0C7
:1000D000809381008DE790E0909389008093880061
:1000E00082E080936F0010928500109284008091CE
:1000F000000190910101A0910201B0910301809350
:100100000F0190931001A0931101B09312018FB7CA
:1001100080688FBF089510928100089581E08093D8
:10012000130108951F920F920FB60F9211240BB670
:100130000F922F933F934F935F936F937F938F9380
:100140009F93AF93BF93EF93FF9380910F01909193
:100150001001A0911101B09112010197A109B109FB
:1001600080930F0190931001A0931101B09312019D
:10017000892B8A2B8B2B91F40E948E008091000199
:1001800090910101A0910201B091030180930F01B0
:1001900090931001A0931101B0931201FF91EF9180
:1001A000BF91AF919F918F917F916F915F914F918F
:1001B0003F912F910F900BBE0F900FBE0F901F908D
:1001C0001895609300017093010180930201909350
:1001D000030160930F0170931001809311019093BC
:1001E00012010895809114019091150181309105BB
:1001F00069F018F0029799F01AC081E090E09093AE
:1002000015018093140180930E01089582E090E01F
:10021000909315018093140180930E01089510921C
:1002200015011092140184E080930E01089510923C
:1002300015011092140181E080930E0108958091C0
:10024000180190911901009719F0019759F011C008
:1002500081E090E0909319018093180188E08093E9
:100260000D010895109219011092180110920D01BC
:10027000089581E090E09093190180931801109205
:100280000D0108958091160190911701009719F0C2
:10029000019759F014C081E090E09093170180938A
:1002A000160180E180930C01089580B18E3F21F406
:1002B000109217011092160110920C01089581E01E
:1002C00090E0909317018093160110920C0108950D
:1002D00011B88FEF82B984B915B810921501109238
:1002E000140181E090E0909319018093180190939C
:1002F00017018093160161E070E080E090E00E94B9
:10030000E1000E94670080910A0190910B0186979D
:1003100030F00E94F20010920B0110920A018091BD
:100320000801909109018D37910530F00E941F015D
:100330001092090110920801809106019091070125
:10034000029730F00E9442011092070110920601BC
:1003500090910C0180910D01892B90910E01892BB8
:1003600085B980910A0190910B012091040130918F
:100370000501820F931F90930B0180930A018091D6
:10038000080190910901820F931F909309018093B6
:1003900008018091060190910701820F931F9093AD
:1003A000070180930601809113018823E1F31092E5
:0803B0001301A9CFF894FFCF5F
:0C03B80001000000010002007D00260092
:00000001FF
