:100000000C9446000C9465000C9465000C946500FB
:100010000C9465000C9465000C9465000C946500CC
:100020000C9465000C9465000C9465000C946500BC
:100030000C9465000C9492000C9465000C9465007F
:100040000C9465000C9465000C9465000C9465009C
:100050000C9465000C9465000C9465000C9465008C
:100060000C9465000C9465000C9465000C9465007C
:100070000C9465000C9465000C9465000C9465006C
:100080000C9465000C9465000C94650011241FBE4F
:10009000CFEFD0E4DEBFCDBF11E0A0E0B1E0E0E201
:1000A000F4E000E00BBF02C007900D92A031B10751
:1000B000D9F711E0A0E1B1E001C01D92A032B10773
:1000C000E1F70E9468010C940E020C9400008BE092
:1000D000809381008CE090E0909389008093880069
:1000E00082E080936F0010928500109284008091CE
:1000F000010190910201A0910301B091040180934C
:10010000150190931601A0931701B09318018FB7B2
:1001100080688FBF089510928100089581E08093D8
:10012000190108951F920F920FB60F9211240BB66A
:100130000F922F933F934F935F936F937F938F9380
:100140009F93AF93BF93EF93FF938091150190918D
:100150001601A0911701B09118010197A109B109E9
:100160008093150190931601A0931701B093180185
:10017000892B8A2B8B2B91F40E948E008091010198
:1001800090910201A0910301B091040180931501A7
:1001900090931601A0931701B0931801FF91EF916E
:1001A000BF91AF919F918F917F916F915F914F918F
:1001B0003F912F910F900BBE0F900FBE0F901F908D
:1001C000189560930101709302018093030190934D
:1001D00004016093150170931601809317019093A9
:1001E0001801089580911A0190911B0181309105A9
:1001F00069F018F0029799F01AC081E090E09093AE
:100200001B0180931A0180931401089582E090E00D
:1002100090931B0180931A0180931401089510920A
:100220001B0110921A0184E080931401089510922A
:100230001B0110921A0181E08093140108958091AE
:100240001E0190911F01009719F0019759F011C0FC
:1002500081E090E090931F0180931E0188E08093DD
:100260001301089510921F0110921E0110921301A4
:10027000089581E090E090931F0180931E011092F9
:100280001301089580911C0190911D01009719F0B0
:10029000019759F014C081E090E090931D01809384
:1002A0001C0180E180931201089580B18E3F21F4FA
:1002B00010921D0110921C0110921201089581E00C
:1002C00090E090931D0180931C01109212010895FB
:1002D00011B88FEF82B984B915B810921B01109232
:1002E0001A0181E090E090931F0180931E0190938A
:1002F0001D0180931C0161E070E080E090E00E94AD
:10030000E1000E94670080910D0190910E018C37F1
:10031000914030F00E94F20010920E0110920D01F7
:1003200080910B0190910C01823E944030F00E942C
:100330001F0110920C0110920B01209107013091C6
:1003400008018091090190910A012817390730F0BE
:100350000E944201109208011092070180B18D3F66
:1003600081F48091100181110CC08091090190915C
:100370000A01019690930A018093090181E080931C
:10038000100180B18F3F11F41092100180B18B3FAA
:1003900099F48091100181110FC080910901909111
:1003A0000A018230910540F0019790930A018093F1
:1003B000090181E080931001909112018091130155
:1003C000892B90911401892B85B980910D01909111
:1003D0000E012091050130910601820F931F909329
:1003E0000E0180930D0180910B0190910C01820F01
:1003F000931F90930C0180930B01809107019091C2
:100400000801820F931F9093080180930701809148
:1004100019018823E1F31092190175CFF894FFCFE9
:1004200001010000000100020002007D0026000022
:00000001FF
